{
  "_format": "hh-sol-artifact-1",
  "contractName": "PaymentSplitter",
  "sourceName": "contracts/PaymentSplitter.sol",
  "abi": [
    {
      "inputs": [
        {
          "internalType": "address[]",
          "name": "_recipients",
          "type": "address[]"
        },
        {
          "internalType": "uint256[]",
          "name": "shares_",
          "type": "uint256[]"
        },
        {
          "internalType": "address",
          "name": "initialOwner",
          "type": "address"
        }
      ],
      "stateMutability": "nonpayable",
      "type": "constructor"
    },
    {
      "inputs": [
        {
          "internalType": "address",
          "name": "owner",
          "type": "address"
        }
      ],
      "name": "OwnableInvalidOwner",
      "type": "error"
    },
    {
      "inputs": [
        {
          "internalType": "address",
          "name": "account",
          "type": "address"
        }
      ],
      "name": "OwnableUnauthorizedAccount",
      "type": "error"
    },
    {
      "inputs": [
        {
          "internalType": "address",
          "name": "token",
          "type": "address"
        }
      ],
      "name": "SafeERC20FailedOperation",
      "type": "error"
    },
    {
      "anonymous": false,
      "inputs": [
        {
          "indexed": true,
          "internalType": "address",
          "name": "token",
          "type": "address"
        },
        {
          "indexed": false,
          "internalType": "uint256",
          "name": "totalAmount",
          "type": "uint256"
        }
      ],
      "name": "Distribution",
      "type": "event"
    },
    {
      "anonymous": false,
      "inputs": [
        {
          "indexed": true,
          "internalType": "address",
          "name": "previousOwner",
          "type": "address"
        },
        {
          "indexed": true,
          "internalType": "address",
          "name": "newOwner",
          "type": "address"
        }
      ],
      "name": "OwnershipTransferred",
      "type": "event"
    },
    {
      "inputs": [
        {
          "internalType": "address",
          "name": "token",
          "type": "address"
        },
        {
          "internalType": "uint256",
          "name": "totalAmount",
          "type": "uint256"
        }
      ],
      "name": "distribute",
      "outputs": [],
      "stateMutability": "nonpayable",
      "type": "function"
    },
    {
      "inputs": [],
      "name": "owner",
      "outputs": [
        {
          "internalType": "address",
          "name": "",
          "type": "address"
        }
      ],
      "stateMutability": "view",
      "type": "function"
    },
    {
      "inputs": [],
      "name": "recipients",
      "outputs": [
        {
          "components": [
            {
              "internalType": "address",
              "name": "recipient",
              "type": "address"
            },
            {
              "internalType": "uint256",
              "name": "share",
              "type": "uint256"
            }
          ],
          "internalType": "struct PaymentSplitter.RecipientShare[]",
          "name": "",
          "type": "tuple[]"
        }
      ],
      "stateMutability": "view",
      "type": "function"
    },
    {
      "inputs": [],
      "name": "renounceOwnership",
      "outputs": [],
      "stateMutability": "nonpayable",
      "type": "function"
    },
    {
      "inputs": [],
      "name": "totalShares",
      "outputs": [
        {
          "internalType": "uint256",
          "name": "",
          "type": "uint256"
        }
      ],
      "stateMutability": "view",
      "type": "function"
    },
    {
      "inputs": [
        {
          "internalType": "address",
          "name": "newOwner",
          "type": "address"
        }
      ],
      "name": "transferOwnership",
      "outputs": [],
      "stateMutability": "nonpayable",
      "type": "function"
    }
  ],
  "bytecode": "0x60a060405234801561001057600080fd5b50604051610bb0380380610bb083398101604081905261002f91610459565b806001600160a01b03811661005f57604051631e4fbdf760e01b8152600060048201526024015b60405180910390fd5b61006881610315565b508251806100b85760405162461bcd60e51b815260206004820152601e60248201527f5061796d656e7453706c69747465723a206e6f20726563697069656e747300006044820152606401610056565b825181146101085760405162461bcd60e51b815260206004820181905260248201527f5061796d656e7453706c69747465723a206c656e677468206d69736d617463686044820152606401610056565b6000805b828110156102aa5760008682815181106101285761012861052b565b6020026020010151905060008683815181106101465761014661052b565b6020026020010151905060006001600160a01b0316826001600160a01b0316036101b25760405162461bcd60e51b815260206004820152601f60248201527f5061796d656e7453706c69747465723a207a65726f20726563697069656e74006044820152606401610056565b600081116102025760405162461bcd60e51b815260206004820152601b60248201527f5061796d656e7453706c69747465723a207a65726f20736861726500000000006044820152606401610056565b604080518082019091526001600160a01b0383811682526020820183815260018054808201825560009190915292517fb10e2d527612073b26eecdfd717e6a320cf44b4afac2b0732d9fcbe2b7fa0cf6600290940293840180546001600160a01b0319169190931617909155517fb10e2d527612073b26eecdfd717e6a320cf44b4afac2b0732d9fcbe2b7fa0cf79091015561029e8185610541565b9350505060010161010c565b5060808190528061030b5760405162461bcd60e51b815260206004820152602560248201527f5061796d656e7453706c69747465723a20696e76616c696420746f74616c2073604482015264686172657360d81b6064820152608401610056565b5050505050610568565b600080546001600160a01b038381166001600160a01b0319831681178455604051919092169283917f8be0079c531659141344cd1fd0a4f28419497f9722a3daafe3b4186f6b6457e09190a35050565b634e487b7160e01b600052604160045260246000fd5b604051601f8201601f191681016001600160401b03811182821017156103a3576103a3610365565b604052919050565b60006001600160401b038211156103c4576103c4610365565b5060051b60200190565b80516001600160a01b03811681146103e557600080fd5b919050565b600082601f8301126103fb57600080fd5b8151602061041061040b836103ab565b61037b565b8083825260208201915060208460051b87010193508684111561043257600080fd5b602086015b8481101561044e5780518352918301918301610437565b509695505050505050565b60008060006060848603121561046e57600080fd5b83516001600160401b038082111561048557600080fd5b818601915086601f83011261049957600080fd5b815160206104a961040b836103ab565b82815260059290921b8401810191818101908a8411156104c857600080fd5b948201945b838610156104ed576104de866103ce565b825294820194908201906104cd565b9189015191975090935050508082111561050657600080fd5b50610513868287016103ea565b925050610522604085016103ce565b90509250925092565b634e487b7160e01b600052603260045260246000fd5b8082018082111561056257634e487b7160e01b600052601160045260246000fd5b92915050565b60805161062761058960003960008181608a015261027e01526106276000f3fe608060405234801561001057600080fd5b50600436106100625760003560e01c80630e57d4ce146100675780633a98ef3914610085578063715018a6146100ba5780638da5cb5b146100c4578063f2fde38b146100df578063fb932108146100f2575b600080fd5b61006f610105565b60405161007c91906104a0565b60405180910390f35b6100ac7f000000000000000000000000000000000000000000000000000000000000000081565b60405190815260200161007c565b6100c261017a565b005b6000546040516001600160a01b03909116815260200161007c565b6100c26100ed366004610514565b61018e565b6100c2610100366004610536565b6101d1565b60606001805480602002602001604051908101604052809291908181526020016000905b82821015610171576000848152602090819020604080518082019091526002850290910180546001600160a01b03168252600190810154828401529083529092019101610129565b50505050905090565b610182610352565b61018c600061037f565b565b610196610352565b6001600160a01b0381166101c557604051631e4fbdf760e01b8152600060048201526024015b60405180910390fd5b6101ce8161037f565b50565b600081116102215760405162461bcd60e51b815260206004820152601f60248201527f5061796d656e7453706c69747465723a20616d6f756e74206973207a65726f0060448201526064016101bc565b6001548290600090815b818110156103075760006001828154811061024857610248610560565b600091825260208083206040805180820190915260029093020180546001600160a01b03168352600101549082018190529092507f0000000000000000000000000000000000000000000000000000000000000000906102a8908961058c565b6102b291906105a9565b90506102bf6001856105cb565b83036102d2576102cf85886105cb565b90505b6102dc81866105de565b945080156102fd5781516102fd906001600160a01b038816903390846103cf565b505060010161022b565b50846001600160a01b03167f33ad5d6b2a46b5457e0d36286a2686a0390b0821dedbbdf8dcdcda64f4782c688560405161034391815260200190565b60405180910390a25050505050565b6000546001600160a01b0316331461018c5760405163118cdaa760e01b81523360048201526024016101bc565b600080546001600160a01b038381166001600160a01b0319831681178455604051919092169283917f8be0079c531659141344cd1fd0a4f28419497f9722a3daafe3b4186f6b6457e09190a35050565b604080516001600160a01b0385811660248301528416604482015260648082018490528251808303909101815260849091019091526020810180516001600160e01b03166323b872dd60e01b17905261042990859061042f565b50505050565b600080602060008451602086016000885af180610452576040513d6000823e3d81fd5b50506000513d9150811561046a578060011415610477565b6001600160a01b0384163b155b1561042957604051635274afe760e01b81526001600160a01b03851660048201526024016101bc565b602080825282518282018190526000919060409081850190868401855b828110156104eb57815180516001600160a01b031685528601518685015292840192908501906001016104bd565b5091979650505050505050565b80356001600160a01b038116811461050f57600080fd5b919050565b60006020828403121561052657600080fd5b61052f826104f8565b9392505050565b6000806040838503121561054957600080fd5b610552836104f8565b946020939093013593505050565b634e487b7160e01b600052603260045260246000fd5b634e487b7160e01b600052601160045260246000fd5b80820281158282048414176105a3576105a3610576565b92915050565b6000826105c657634e487b7160e01b600052601260045260246000fd5b500490565b818103818111156105a3576105a3610576565b808201808211156105a3576105a361057656fea264697066735822122052821be7ed7005ee41bb287c40aea005a1b9c8aa29196b2e9c413a5604a8883264736f6c63430008190033",
  "linkReferences": {},
  "deployedLinkReferences": {}
}